S0120000426C696E6B7942696C6C2E7372656326
S11300000C9436000C9440000C9440000C94400076
S11300100C9440000C9440000C9440000C9440005C
S11300200C9440000C9440000C9440000C9440004C
S11300300C9440000C9440000C9440000C9440003C
S11300400C9440000C9440000C9440000C9440002C
S11300500C9440000C9440000C9440000C9440001C
S11300600C9440000C9440000C94400011241FBEDA
S1130070CFEFD4E0DEBFCDBF0E9442000C9452000B
S11300800C940000259A2D9A8FE39FE10197F1F7D4
S113009000C000002D988FE39FE10197F1F700C0A5
S10B00A00000F1CFF894FFCF3A
S9030000FC
