S0120000426C696E6B7942696C6C2E7372656326
S11300000C9436000C9440000C9440000C94400076
S11300100C9440000C9440000C9440000C9440005C
S11300200C9440000C9440000C9440000C9440004C
S11300300C9440000C9440000C9440000C9440003C
S11300400C9440000C9440000C9440000C9440002C
S11300500C9440000C9440000C9440000C9440001C
S11300600C9440000C9440000C94400011241FBEDA
S1130070CFEFD4E0DEBFCDBF0E9442000C949900C4
S11300800C940000259A249A239A229A219A209A61
S113009061E070E020E030E045B1CB01022E02C007
S11300A0880F991F0A94E2F7942F982B95B94FEF74
S11300B050E7E2E041505040E040E1F700C000006A
S11300C095B18095892385B94FEF50E782E041507F
S11300D050408040E1F700C000002F5F3F4F2630C2
S11300E03105D1F625E030E045B1CB01022E02C046
S11300F0880F991F0A94E2F7942F982B95B9EFEF84
S113010040E752E0E15040405040E1F700C00000B9
S113011095B18095892385B98FEF90E7E2E081500E
S11301209040E040E1F700C0000021503109E0F6C2
S1090130B1CFF894FFCFEB
S9030000FC
