:100000000C9436000C9453000C9453000C94530041
:100010000C9453000C9453000C9453000C94530014
:100020000C9453000C9453000C9453000C94530004
:100030000C9453000C9453000C9453000C945300F4
:100040000C9453000C9453000C9453000C945300E4
:100050000C9453000C9453000C9453000C945300D4
:100060000C9453000C9453000C94530011241FBEA5
:10007000CFEFD4E0DEBFCDBF11E0A0E0B1E0E6EF0E
:10008000F8E002C005900D92A032B107D9F721E047
:10009000A0E2B1E001C01D92A632B207E1F70E94D2
:1000A000C8000C9479040C940000E0ECF0E090811E
:1000B00095FFFDCF8093C6000895E0ECF0E08081CD
:1000C0008823ECF78091C60008951092C50087E65A
:1000D0008093C400E2ECF0E0808183608083E1ECF7
:1000E000F0E08081886080838081806180830895D2
:1000F000EF92FF920F931F93CF93DF93CDB7DEB7AD
:10010000C456D1090FB6F894DEBF0FBECDBF80E054
:1001100091E00E9443018E010F5F1F4FC8010E94B2
:10012000FC001F930F9380E191E09F938F930E94B7
:100130002601F80101900020E9F73197CF01801BDB
:10014000910B8C0101970F900F900F900F9072F010
:10015000CE010196080F191F7C01F80182918F01D1
:1001600090E00E943C010E151F05B9F78AE090E06F
:100170000E943C01CC59DF4F0FB6F894DEBF0FBE92
:10018000CDBFDF91CF911F910F91FF90EF90089518
:10019000CF93DF93CDB7DEB76C970FB6F894DEBF81
:1001A0000FBECDBF0E9465008EE0DE011196FD01FD
:1001B000982F11929A95E9F792E09C8325E530E01B
:1001C0003A87298720E231E0F901B383A2831E96A2
:1001D000FD0111928A95E9F781E08A8B8DE590E027
:1001E0009A8F898FF901B183A08383E191E00E9406
:1001F00043010E947800FDCF0F931F93CF93DF93AD
:10020000E0912001F0912101238120FD03C080E0D5
:1002100090E017C0C92FD82F082F192F80912001E7
:10022000909121010E946A038F3F2FEF920779F38B
:10023000F80181938F010A9789F7319710828D2FEA
:100240009C2FDF91CF911F910F910895A0E0B0E016
:10025000ECE2F1E00C945204AE014B5F5F4FFA0107
:1002600061917191AF0180912201909123010E94CF
:100270007301E2E00C946E046091220170912301FD
:100280000E94A80308950F931F93CF93DF93E091EB
:100290002201F0912301238121FF1BC08C01D0E0BA
:1002A000C0E0F80181918F016091220170912301DA
:1002B000DB011896ED91FC911997882331F009958F
:1002C000892B79F3DFEFCFEFECCF8AE00995892B0B
:1002D00019F08FEF9FEF02C08D2F9C2FDF91CF91F0
:1002E0001F910F910895ABE0B0E0E9E7F1E00C94C5
:1002F00042046C017B018A01FC0117821682838112
:1003000081FFCCC1CE0101963C01F6019381F7013A
:1003100093FD859193FF81917F01882309F4BAC1F0
:10032000853239F493FD859193FF81917F01853268
:1003300029F4B60190E00E94A803E7CF912C212C6C
:10034000312CFFE1F315D8F08B3279F038F480329C
:1003500079F08332A1F4232D20611DC08D3261F02C
:10036000803369F4232D216016C0832D8260382EDE
:10037000E32DE4603E2E2AC0F32DF8601DC037FC4B
:100380002DC020ED280F2A3040F08E32B9F436FC13
:1003900081C1232D2064322E19C036FE06C08AE0AA
:1003A000989E200D1124922E11C0EAE02E9E200D61
:1003B0001124222EF32DF0623F2E08C08C3621F43A
:1003C000832D8068382E02C0883641F4F70193FDF2
:1003D000859193FF81917F018111B3CF982F9F7DEC
:1003E0009554933028F40C5F1F4F9FE399830DC001
:1003F000833631F0833771F0833509F059C021C05D
:10040000F801808189830E5F1F4F88248394912C8B
:10041000530113C02801F2E04F0E511CF801A080D7
:10042000B18036FE03C0692D70E002C06FEF7FEF30
:10043000C5010E945F034C018201F32DFF773F2E1F
:1004400016C0280122E0420E511CF801A080B180A4
:1004500036FE03C0692D70E002C06FEF7FEFC5016B
:100460000E9454034C01F32DF0683F2E820133FCAF
:100470001BC0822D90E088169906B0F4B60180E288
:1004800090E00E94A8032A94F4CFF50137FC8591EF
:1004900037FE81915F01B60190E00E94A803211010
:1004A0002A9421E0821A91088114910471F7E8C01E
:1004B000843611F0893641F5F80137FE07C06081B6
:1004C0007181828193810C5F1F4F08C060817181AF
:1004D000072E000C880B990B0E5F1F4FF32DFF7634
:1004E0003F2E97FF09C090958095709561957F4F3D
:1004F0008F4F9F4FF0683F2E2AE030E0A3010E940B
:10050000E403882E861845C0853731F4232D2F7ECD
:10051000B22E2AE030E025C0932D997FB92E8F3678
:10052000C1F018F4883579F0B5C0803719F08837F4
:1005300021F0B0C0E92FE061BE2EB4FE0DC0FB2D4E
:10054000F460BF2E09C034FE0AC0292F2660B22EE7
:1005500006C028E030E005C020E130E002C020E124
:1005600032E0F801B7FE07C060817181828193811A
:100570000C5F1F4F06C06081718180E090E00E5FCC
:100580001F4FA3010E94E403882E8618FB2DFF77DE
:100590003F2E36FE0DC0232D2E7FA22E891458F437
:1005A00034FE0BC032FC09C0832D8E7EA82E05C000
:1005B000B82CA32C03C0B82C01C0B92CA4FE0FC0CA
:1005C000FE01E80DF11D8081803321F49A2D997E82
:1005D000A92E09C0A2FE06C0B394B39404C08A2D0C
:1005E000867809F0B394A3FC11C0A0FE06C0B21433
:1005F00088F4280C922C9B180EC0B21460F4B6013B
:1006000080E290E00E94A803B394F7CFB21418F4EC
:100610002B1802C0982C212CA4FE10C0B60180E338
:1006200090E00E94A803A2FE17C0A1FC03C088E7C7
:1006300090E002C088E590E0B6010CC08A2D867873
:1006400059F0A1FE02C08BE201C080E2A7FC8DE25E
:10065000B60190E00E94A803891438F4B60180E343
:1006600090E00E94A8039A94F7CF8A94F301E80DD2
:10067000F11D8081B60190E00E94A8038110F5CFA2
:10068000222009F442CEB60180E290E00E94A80345
:100690002A94F6CFF6018681978102C08FEF9FEFF3
:1006A0002B96E2E10C945E04FC01059061507040D1
:1006B0000110D8F7809590958E0F9F1F0895FC012B
:1006C0006150704001900110D8F7809590958E0F81
:1006D0009F1F0895CF93DF93EC012B8120FF33C040
:1006E00026FF0AC02F7B2B838E819F8101969F83DB
:1006F0008E838A8190E029C022FF0FC0E881F981B2
:100700008081082E000C990B009719F420622B832E
:100710001AC03196F983E8830EC0EA85FB850995F6
:1007200097FF09C02B81019611F080E201C080E1A2
:10073000822B8B8308C02E813F812F5F3F4F3F83E9
:100740002E83992702C08FEF9FEFDF91CF910895FD
:100750000F931F93CF93DF93FB01238121FD03C0F0
:100760008FEF9FEF2CC022FF16C046815781248156
:1007700035814217530744F4A081B1819D012F5F59
:100780003F4F318320838C93268137812F5F3F4FEA
:100790003783268314C08B01EC01FB010084F185B3
:1007A000E02D0995892BE1F6D80116968D919C9143
:1007B0001797019617969C938E931697CE01DF910B
:1007C000CF911F910F910895FA01AA27283051F176
:1007D000203181F1E8946F936E7F6E5F7F4F8F4F72
:1007E0009F4FAF4FB1E03ED0B4E03CD0670F781FD1
:1007F000891F9A1FA11D680F791F8A1F911DA11DB6
:100800006A0F711D811D911DA11D20D009F46894EE
:100810003F912AE0269F11243019305D3193DEF696
:10082000CF010895462F4770405D4193B3E00FD04C
:10083000C9F7F6CF462F4F70405D4A3318F0495D37
:1008400031FD4052419302D0A9F7EACFB4E0A6951A
:100850009795879577956795BA95C9F7009761053C
:10086000710508959B01AC010A2E06945795479592
:1008700037952795BA95C9F7620F731F841F951F87
:10088000A01D08952F923F924F925F926F927F9298
:100890008F929F92AF92BF92CF92DF92EF92FF9290
:1008A0000F931F93CF93DF93CDB7DEB7CA1BDB0B3C
:1008B0000FB6F894DEBF0FBECDBF09942A883988E1
:1008C00048885F846E847D848C849B84AA84B984E8
:1008D000C884DF80EE80FD800C811B81AA81B981F4
:1008E000CE0FD11D0FB6F894DEBF0FBECDBFED0108
:0608F0000895F894FFCF0B
:1008F600456E746572206120737472696E672E008E
:10090600257300537461727475702E2E2E0D0000BF
:00000001FF
